{
  "_format": "hh-sol-artifact-1",
  "contractName": "AnchorRoot",
  "sourceName": "contracts/AnchorRoot.sol",
  "abi": [
    {
      "anonymous": false,
      "inputs": [
        {
          "indexed": false,
          "internalType": "bytes32",
          "name": "root",
          "type": "bytes32"
        },
        {
          "indexed": false,
          "internalType": "uint256",
          "name": "timestamp",
          "type": "uint256"
        }
      ],
      "name": "RootAnchored",
      "type": "event"
    },
    {
      "inputs": [
        {
          "internalType": "bytes32",
          "name": "root",
          "type": "bytes32"
        }
      ],
      "name": "anchor",
      "outputs": [],
      "stateMutability": "nonpayable",
      "type": "function"
    },
    {
      "inputs": [
        {
          "internalType": "uint256",
          "name": "",
          "type": "uint256"
        }
      ],
      "name": "anchors",
      "outputs": [
        {
          "internalType": "bytes32",
          "name": "root",
          "type": "bytes32"
        },
        {
          "internalType": "uint256",
          "name": "timestamp",
          "type": "uint256"
        }
      ],
      "stateMutability": "view",
      "type": "function"
    },
    {
      "inputs": [
        {
          "internalType": "uint256",
          "name": "index",
          "type": "uint256"
        }
      ],
      "name": "getAnchor",
      "outputs": [
        {
          "internalType": "bytes32",
          "name": "",
          "type": "bytes32"
        },
        {
          "internalType": "uint256",
          "name": "",
          "type": "uint256"
        }
      ],
      "stateMutability": "view",
      "type": "function"
    }
  ],
  "bytecode": "0x608060405234801561001057600080fd5b5061035c806100206000396000f3fe608060405234801561001057600080fd5b50600436106100415760003560e01c8063368b733e146100465780634c7df18f14610077578063eecdf927146100a8575b600080fd5b610060600480360381019061005b9190610220565b6100c4565b60405161006e929190610275565b60405180910390f35b610091600480360381019061008c9190610220565b6100f8565b60405161009f929190610275565b60405180910390f35b6100c260048036038101906100bd91906102ca565b610153565b005b600081815481106100d457600080fd5b90600052602060002090600202016000915090508060000154908060010154905082565b60008060008084815481106101105761010f6102f7565b5b9060005260206000209060020201604051806040016040529081600082015481526020016001820154815250509050806000015181602001519250925050915091565b60006040518060400160405280838152602001428152509080600181540180825580915050600190039060005260206000209060020201600090919091909150600082015181600001556020820151816001015550507f2e8856af32a4e4b53d984c6f9424a615f670a7d22f2b2c8ed435a4ac2ff09b9081426040516101da929190610275565b60405180910390a150565b600080fd5b6000819050919050565b6101fd816101ea565b811461020857600080fd5b50565b60008135905061021a816101f4565b92915050565b600060208284031215610236576102356101e5565b5b60006102448482850161020b565b91505092915050565b6000819050919050565b6102608161024d565b82525050565b61026f816101ea565b82525050565b600060408201905061028a6000830185610257565b6102976020830184610266565b9392505050565b6102a78161024d565b81146102b257600080fd5b50565b6000813590506102c48161029e565b92915050565b6000602082840312156102e0576102df6101e5565b5b60006102ee848285016102b5565b91505092915050565b7f4e487b7100000000000000000000000000000000000000000000000000000000600052603260045260246000fdfea26469706673582212207d5e88c18f25dbf880f339c6e471db5c535233d8fdbeb6f637ee3f56f1d5e81364736f6c63430008140033",
  "linkReferences": {},
  "deployedLinkReferences": {}
}